:020000040000FA
:100000005A28A301A200FF30A207031CA307031C68
:1000100055280330A100DF300F200328A101E83E5E
:10002000A000A109FC30031C1828A00703181528FC
:10003000A0076400A10F152820181E28A01C222844
:10004000000022280800A501A4011030A600210DFF
:10005000A40DA50D2208A4022308031C230FA5024A
:10006000031839282208A40723080318230FA5071B
:100070000310A00DA10DA60B27282008552810302D
:10008000A800A101A001A70CA60C031C4D28220862
:10009000A00723080318230FA107A10CA00CA50C8F
:1000A000A40CA80B43282408552883130313831298
:1000B000640008008316860183127F30860080303A
:1000C000BA000130BB00640008303B028A110A12FA
:1000D000031878280130A3002C308A010220031075
:1000E000BA0C3A098600BB0A8A110A12031D63285A
:1000F0000130BB00640008303B028A110A12031869
:1001000096280130A3002C308A0102203A08A6006C
:10011000A7010230A200A3018A013F20BA003A09D8
:100120008600BB0A8A110A12031D7A288A016128F7
:02400E00753FFC
:00000001FF
