:020000040000FA
:10000000B201F92898181812181664008C1E0528D9
:100010001A080314F42864000C1E0B28990003141A
:10002000F428A501A400B3172730A3001030242022
:100030000330A300E8302420A30164302420A3016E
:100040000A30242024082F28A2002508A100240813
:10005000A000D8202008031DB313B31B0800303EB6
:10006000A7000911091089108316091109108910B8
:10007000880183122708B21858283A30A100FC30B2
:10008000B9203330A6006B201030A1006830B920B1
:100090006B206430B8206B20383057200C3057204C
:1000A0000130572006305720B21427085828321440
:1000B000A600321C66280910033C031C6B286B2029
:1000C0000730A100D030B920031408003214FE3CE0
:1000D0000319F4280914091526088800321009119B
:1000E0003230B82003140800A300360884008417B7
:1000F000340980058413A3080319F428F030A500FF
:1001000022088038A400F030A5030319A5000319C4
:10011000A3030319F4288C289C2003012018340819
:10012000A21F3408A20803190301A40F992880060E
:1001300080289A2800008328210820040319A00A97
:100140008030201AA1062019A106A018A106210DB1
:10015000A00DA10DF428A301A200FF30A207031CEB
:10016000A307031CF4280330A100DF30B920AD2819
:10017000A101E83EA000A109FC30031CC228A00791
:100180000318BF28A0076400A10FBF282018C828A3
:10019000A01CCC280000CC2808000038031DFF302C
:1001A0000405031DFF30F4280404031DFF30F42868
:1001B000A501A4011030A600210DA40DA50D220853
:1001C000A4022308031C230FA5020318EE2822080B
:1001D000A40723080318230FA5070310A00DA10DE2
:1001E000A60BDC282008F428831303138312640071
:1001F000080083161930990024309800831290303B
:100200009800831607309F00643083128A01AB2068
:100210000330B8004A30B9008A110A1227248A1123
:100220000A121D218A110A123E228A110A128C22F8
:100230008A110A1238238A010C29FE308A013020E3
:1002400001308A01302054308A01302041308A0147
:10025000302053308A0130202D308A0130204B303D
:100260008A01302041308A01302047308A01302015
:1002700049308A01302054308A0130202D308A01E3
:1002800030204D308A01302041308A0130204B30FF
:100290008A01302041308A01302053308A013020D9
:1002A000FE308A013020C0308A01302048308A0177
:1002B000302061308A0130206D308A0130206C306E
:1002C0008A01302065308A01302020308A013020B8
:1002D00062308A01302065308A0130206B308A011B
:1002E00030206C308A01302065308A0130206E3039
:1002F0008A01302069308A01302079308A0130202B
:100300006F308A01302072308A0130202E308A010D
:10031000302054308A010B202D308A010B204B30C5
:100320008A010B202D308A010B204D308A010B20D1
:1003300020308A010B2073308A010B2065308A013E
:100340000B2063308A010B2069308A010B206E304C
:100350008A010B2069308A010B207A308A010B2038
:100360003A308A010B2020308A010B208A010220BA
:10037000C7000D308A010B200A308A010B20470884
:10038000743C031DFF30FF3ABA0047086B3C031D65
:10039000FF30FF3ABC003A0884003C088A01D420B0
:1003A000BC00BD0047086D3C031DFF30FF3ABE0096
:1003B0003C083D0484003E088A01D420BE00BF00F2
:1003C00064003E083F048A110A120319EA298A11BF
:1003D0000A123D2A64004708543C8A110A12031D80
:1003E000F6297430C7008A110A123D2A64004708B2
:1003F0004B3C8A110A12031D022A6B30C7008A1176
:100400000A123D2A640047084D3C8A110A12031D56
:100410000E2A6D30C7008A110A123D2A48308A011F
:100420000B2061308A010B2074308A010B2061306F
:100430008A010B206C308A010B2069308A010B2065
:1004400020308A010B2067308A010B2069308A0135
:100450000B2072308A010B2069308A010B20733027
:100460008A010B202E308A010B200D308A010B20CF
:100470000A308A010B208A011D2908003808A000D3
:100480003908A1008A019C202008B8002108B90081
:100490003808A0003908A1000330A200A3018A0196
:1004A000D8202408C80064004808003C8A110A12B9
:1004B000031D5F2A7430C8008A110A126D2A640075
:1004C0004808013C8A110A12031D6B2A6B30C800D0
:1004D0008A110A126D2A6D30C80008000330C60068
:1004E0006400013046028A110A12031C8B2AFE3076
:1004F0008A013020CF308A01302046088A0111203D
:100500000330A300E8308A01AC200130C6028A1112
:100510000A120318702A0800FE308A0130200130C8
:100520008A0130204F308A01302079308A01302012
:1005300075308A0130206E308A01302063308A01A4
:10054000302075308A0130203A308A013020203046
:100550008A01302064004708743C8A110A12031D86
:10056000BD2A54308A01302041308A013020533076
:100570008A0130208A110A12E52A640047086B3C80
:100580008A110A12031DD62A4B308A0130204130CD
:100590008A01302047308A01302049308A013020DA
:1005A00054308A0130208A110A12E52A4D308A011E
:1005B000302041308A0130204B308A0130204130D8
:1005C0008A01302053308A013020FE308A013020E9
:1005D000C0308A01302050308A01302049308A01F1
:1005E000302043308A0130203A308A0130202030D8
:1005F0008A01302064004808743C8A110A12031DE5
:100600000D2B54308A01302041308A013020533084
:100610008A0130208A110A12352B640048086B3C8D
:100620008A110A12031D262B4B308A0130204130DB
:100630008A01302047308A01302049308A01302039
:1006400054308A0130208A110A12352B4D308A012C
:10065000302041308A0130204B308A013020413037
:100660008A01302053308A0130208A016E2208002E
:100670006400470848028A110A12031D722BFE30DB
:100680008A01302001308A0130204F308A01302029
:1006900079308A01302075308A0130206E308A012D
:1006A000302020308A01302062308A0130206530CD
:1006B0008A01302072308A01302061308A01302076
:1006C00062308A01302065308A01302072308A0120
:1006D000302065308A01302021308A0130208A1193
:1006E0000A12242C4708743C031DFF30FF3ABA005D
:1006F00048086D3C031DFF30FF3ABC003A088400F7
:100700003C088A01CD20BC00BD0047086B3C031D9E
:10071000FF30FF3ABE004808743C031DFF30FF3A2B
:10072000C0003E08840040088A01CD20C000C100FE
:100730003C083D048400400841048A01D420C000E4
:10074000C10047086D3C031DFF30FF3AC200480856
:100750006B3C031DFF30FF3AC4004208840044088C
:100760008A01CD20C400C50040084104840044082B
:1007700045048A01D420C400C5006400440845042F
:100780008A110A120319FA2BFE308A013020013037
:100790008A0130204F308A01302079308A013020A0
:1007A00075308A0130206E308A01302063308A0132
:1007B000302075308A01302020308A0130206B30A3
:1007C0008A01302061308A0130207A308A0130205D
:1007D00061308A0130206E308A01302064308A0115
:1007E000302069308A01302021308A0130208A117E
:1007F0000A12242CFE308A01302001308A01302078
:1008000050308A01302049308A01302043308A013B
:10081000302020308A0130206B308A013020613056
:100820008A0130207A308A01302061308A013020FC
:100830006E308A01302064308A01302069308A01AC
:10084000302021308A0130208A016E2208000630D3
:10085000B6000130B4001930A20002308A017420C1
:100860001E30A20002308A0174202330A200023020
:100870008A0174202830A20002308A017420080006
:02400E00753FFC
:00000001FF
