:020000040000FA
:100000005A28A301A200FF30A207031CA307031C68
:1000100055280330A100DF300F200328A101E83E5E
:10002000A000A109FC30031C1828A00703181528FC
:10003000A0076400A10F152820181E28A01C222844
:10004000000022280800A501A4011030A600210DFF
:10005000A40DA50D2208A4022308031C230FA5024A
:10006000031839282208A40723080318230FA5071B
:100070000310A00DA10DA60B27282008552810302D
:10008000A800A101A001A70CA60C031C4D28220862
:10009000A00723080318230FA107A10CA00CA50C8F
:1000A000A40CA80B43282408552883130313831298
:1000B00064000800831686018312803086000130B8
:1000C000B8006400083038028A110A120318742834
:1000D0000130A3002C308A0102200310860CB80ADC
:1000E0008A110A12031D61280130B800640008302B
:1000F00038028A110A12031890280130A3002C300C
:100100008A0102200608A600A7010230A200A3016E
:100110008A013F208600B80A8A110A12031D762838
:040120008A015F28C9
:02400E00753FFC
:00000001FF
