:020000040000FA
:10000000B201DD2898181812181664008C1E0528F5
:100010001A080314D828040864000C1E0C28990040
:100020000314D828A501A400B3172730A30010306B
:1000300025200330A300E8302520A30164302520CB
:10004000A3010A30252024083028A2002508A10099
:100050002408A000B7202008031DB313B31B080019
:10006000303E33280408A7000911091089108316AF
:10007000091109108910880183122708B2185B281A
:100080003A30A100FC30A3203330A6006E2010309F
:10009000A1006830A3206E206430A2206E2038308A
:1000A0005A200C305A2001305A2006305A20B214FF
:1000B00027085B283214A600321C69280910033C6B
:1000C000031C6E286E200730A100D030A32003143B
:1000D00008003214FE3C0319D82809140915260813
:1000E0008800321009113230A22003140800A40045
:1000F00029080319D828D320A0002518831724081D
:100100008400200880008313A40AA9037828A4008F
:1001100029080319D8282518831724088400000803
:100120008313D320A40AA9038928A301A200FF30C6
:10013000A207031CA307031CD8280330A100DF304B
:10014000A3209728A101E83EA000A109FC30031CD0
:10015000AC28A0070318A928A0076400A10FA928AC
:100160002018B228A01CB6280000B6280800A50157
:10017000A4011030A600210DA40DA50D2208A40293
:100180002308031C230FA5020318CD282208A40767
:1001900023080318230FA5070310A00DA10DA60B1C
:1001A000BB282008D828840031088A003008820043
:1001B0008313031383126400080083161930990017
:1001C00024309800831290309800831607309F00E7
:1001D000643083128A019520FE308A013320013079
:1001E0008A01332056308A01332045308A0133207A
:1001F00052308A01332049308A01332020308A016D
:10020000332042308A01332045308A0133204B307D
:100210008A0133204C308A01332045308A01332053
:100220004E308A01332049308A01332059308A0107
:1002300033204F308A01332052308A0133202E3050
:100240008A01332055308A010C2063308A010C204A
:1002500020308A010C2068308A010C2061308A012C
:100260000C206E308A010C2065308A010C206C3025
:100270008A010C2069308A010C2020308A010C2070
:100280006D308A010C2065308A010C2074308A019F
:100290000C2069308A010C206E308A010C2020303D
:1002A0008A010C2067308A010C2069308A010C20F9
:1002B00072308A010C2069308A010C206E308A016C
:1002C0000C2069308A010C207A308A010C203A30E7
:1002D0008A010C2020308A010C200330A900023052
:1002E000B000B101A50138308A0177200330A900A0
:1002F0000B30B000B101A50138308A0187200D30E4
:100300008A010C200A308A010C20FE308A01332039
:1003100001308A01332047308A01332045308A0179
:1003200033204C308A01332045308A0133204E304F
:100330008A01332020308A01332056308A0133204D
:1003400045308A01332052308A01332049308A01F6
:1003500033203A308A0133200330A9003230B00014
:10036000B101A50138308A01872020308A0133206D
:100370008A110A12BD218A01EC280530BB006400F5
:100380003B088A110A120319D6293B088A01122058
:10039000FE308A01332010308A0133200330A3005D
:0E03A000E8308A019620BB038A01BF290800BD
:02400E00753FFC
:00000001FF
