:020000040000FA
:10000000B201FB28A0002A0884002B1883172008BF
:100010008000AA0A0314F62898181812181664000B
:100020008C1E0F281A080314F62864000C1E1528CD
:1000300099000314F628A501A400B3172730A300E4
:1000400010302E200330A300E8302E20A3016430AE
:100050002E20A3010A302E2024083928A2002508CA
:10006000A1002408A000D5202008031DB313B31B52
:100070000800303E3C280408A70009110910891027
:100080008316091109108910880183122708B218F4
:1000900064283A30A100FC309C203330A600772041
:1000A0001030A10068309C20772064309B2077209E
:1000B000383063200C306320013063200630632029
:1000C000B214270864283214A600321C72280910C2
:1000D000033C031C772877200730A100D0309C20F8
:1000E000031408003214FE3C0319F62809140915FC
:1000F000260888003210091132309B2003140800B2
:10010000A40029080319F628251883172408840059
:1001100000088313F120A40AA9038228A301A200E6
:10012000FF30A207031CA307031CF6280330A1001D
:10013000DF309C209028A101E83EA000A109FC30FE
:10014000031CA528A0070318A228A0076400A10F7C
:10015000A2282018AB28A01CAF280000AF28080058
:10016000A101A301A2000130BA28A101A301A200AC
:100170000430BA28A80023082102031DC128220840
:100180002002043003180130031902302805031D32
:10019000FF30F6280038031DFF300405031DFF3033
:1001A000F6280404031DFF30F628A501A401103031
:1001B000A600210DA40DA50D2208A4022308031CEE
:1001C000230FA5020318EB282208A407230803180D
:1001D000230FA5070310A00DA10DA60BD9282008F9
:1001E000F628840031088A00300882008313031344
:1001F0008312640008008316193099002430980097
:10020000831290309800831607309F006430831269
:100210008A018E20FE308A013C2040308A013C2039
:100220000E308A013C2004308A013C2004308A01CF
:100230003C2004308A013C2004308A013C200030FC
:100240008A013C2000308A013C20FE308A013C209B
:1002500048308A013C200E308A013C2004308A015B
:100260003C2007308A013C2005308A013C200430C4
:100270008A013C2000308A013C2000308A013C2069
:10028000FE308A013C2050308A013C200E308A0129
:100290003C2004308A013C201F308A013C2015306C
:1002A0008A013C2004308A013C2000308A013C2035
:1002B00000308A013C20FE308A013C2058308A01FF
:1002C0003C200E308A013C2004308A013C201F3043
:1002D0008A013C2015308A013C2004308A013C20F0
:1002E00002308A013C2001308A013C20FE308A0124
:1002F0003C2060308A013C200E308A013C200430D2
:100300008A013C201F308A013C2015308A013C20A4
:1003100004308A013C200A308A013C2011308A01D5
:100320003C20FE308A013C2068308A013C200730A6
:100330008A013C2007308A013C2007308A013C209A
:1003400006308A013C2006308A013C2006308A01B2
:100350003C2006308A013C20FE308A013C2070306F
:100360008A013C2006308A013C2006308A013C206C
:100370000E308A013C200E308A013C200E308A016A
:100380003C200E308A013C201F308A013C20FE3088
:100390008A013C2078308A013C2000308A013C20D0
:1003A0001C308A013C2004308A013C2004308A0140
:1003B0003C2004308A013C2004308A013C20043077
:1003C0008A013C20FE308A013C2001308A013C2019
:1003D00041308A013C2044308A013C2041308A016E
:1003E0003C204D308A013C2020308A013C204130A5
:1003F0008A013C2053308A013C204D308A013C2048
:1004000041308A013C2043308A013C2041308A013E
:100410003C20FE308A013C20C0308A013C204B3019
:100420008A013C2045308A013C204C308A013C2026
:1004300049308A013C204D308A013C2045308A01F8
:100440003C2020308A013C2047308A013C20493042
:100450008A013C2052308A013C2049308A013C20EC
:100460004E308A013C202E308A013C208A110A122B
:100470006922FE308A013C2001308A013C20423052
:100480008A013C2061308A013C2073308A013C2083
:100490006C308A013C2069308A013C2079308A0125
:1004A0003C206F308A013C2072308A013C2075303C
:1004B0008A013C207A308A013C2021308A013C208C
:1004C0008A110A129026D0018A110A1264248A0124
:1004D000E22935308A01152020308A011520683044
:1004E0008A01152061308A01152072308A01152099
:1004F00066308A0115206C308A01152069308A0126
:10050000152020308A0115206B308A0115206530B6
:100510008A0115206C308A01152069308A01152066
:100520006D308A01152065308A01152020308A013E
:10053000152067308A01152069308A011520723034
:100540008A01152069308A0115206E308A01152034
:1005500069308A0115207A308A0115203A308A01E3
:10056000152020308A011520D10164000530510288
:100570008A110A120318732B8A010C20C200C301CE
:1005800051083D3E84004208800051083D3E8400F1
:100590000008C2004208A0007B308A01B520C200DA
:1005A00051083D3E84000008C4004408A0006030AB
:1005B0008A01B020C4004208840044088A01CA208D
:1005C000C400C5006400440845048A110A120319D6
:1005D000FA2A51083D3E84000008C200E03042077C
:1005E000C200FF300318013EC30051083D3E8400A5
:1005F0004208800051083D3E84000008C2004208C5
:10060000A0005B308A01B520C20051083D3E840045
:100610000008C4004408A00040308A01B020C40093
:100620004208840044088A01CA20C400C50064004E
:10063000440845048A110A120319242B2A308A011E
:1006400015208A110A126E2B0D308A0115200A30EE
:100650008A01152053308A01152061308A01152046
:1006600064308A01152065308A01152063308A01C3
:10067000152065308A01152020308A011520683048
:100680008A01152061308A01152072308A011520F7
:1006900066308A01152020308A01152067308A01D2
:1006A000152069308A01152072308A0115206930C1
:1006B0008A0115206E308A01152069308A011520C3
:1006C0007A308A0115202E308A0115200D308A01DA
:1006D00015200A308A0115208A01692AD10A8A1157
:1006E0000A12031DB52A0D308A0115200A308A012D
:1006F0001520080048308A01152061308A01152034
:1007000072308A01152066308A01152020308A0156
:10071000152067308A01152069308A011520723052
:100720008A01152069308A0115206E308A01152052
:1007300069308A0115207A308A0115203A308A0101
:10074000152020308A0115208A010C20CF004F0887
:10075000A0007B308A01B520C2004F08A0006030A5
:100760008A01B020C4004208840044088A01CA20DB
:10077000C400C5006400440845048A110A12031924
:10078000C32B2030CF024F08A00040308A01B02098
:10079000C2004F08A0005D308A01B520C4004208A5
:1007A000840044088A01CA20C400C50064004408CB
:1007B00045048A110A120319132C0D308A011520E1
:1007C0000A308A01152053308A01152065308A01CC
:1007D000152063308A01152069308A0115206C309C
:1007E0008A01152065308A0115206E308A01152096
:1007F00020308A01152068308A01152061308A0175
:10080000152072308A01152066308A0115203A3091
:100810008A01152020308A0115204F088A011520F1
:100820008A110A125D2C0D308A0115200A308A01C6
:10083000152053308A01152061308A01152064305B
:100840008A01152065308A01152063308A01152040
:1008500065308A01152020308A01152068308A0110
:10086000152061308A01152072308A01152066300A
:100870008A01152020308A01152067308A01152051
:1008800069308A01152072308A01152069308A0189
:1008900015206E308A01152069308A0115207A30C2
:1008A0008A0115202E308A0115200D308A0115206D
:1008B0000A308A0115208A017A2B0D308A01152011
:1008C0000A308A01152008003830AA00AB015F30D9
:1008D0008A0102205F308A0102205F308A010220F3
:1008E0005F308A0102205F308A010220D0018A1124
:1008F0000A1249255008A00005308A01B520C2001F
:100900003D083802031DFF30C4003E083902031DB4
:10091000FF30C6004408840046088A01D120C60082
:10092000C7003F083A02031DFF30C80046084704CD
:10093000840048088A01D120C800C90040083B0251
:10094000031DFF30CA004808490484004A088A0190
:10095000D120CA00CB0041083C02031DFF30CC006F
:100960004A084B0484004C088A01D120CC00CD00F9
:10097000420884004C084D048A01CA20CC00CD00F6
:1009800064004C084D048A110A120319D72C8A11ED
:100990000A1249258A017A238A110A12D8248A1157
:1009A0000A1249258A110A1290268A017A2C080017
:1009B0004F083D02031DFF30C2004F083E02031DD9
:1009C000FF30C4004208840044088A01CA20C400E1
:1009D000C5004F083F02031DFF30C6004408450410
:1009E000840046088A01CA20C600C7004F0840029A
:1009F000031DFF30C80046084704840048088A01E8
:100A0000CA20C800C9004F084102031DFF30CA00B8
:100A10004808490484004A088A01CA20CA00CB0059
:100A200064004A084B048A110A1203191B2DD00ACC
:100A30008A110A12482D64004F083D028A110A12D9
:100A4000031D242D4F08B80064004F083E028A1190
:100A50000A12031D2D2D4F08B90064004F083F02F4
:100A60008A110A12031D362D4F08BA0064004F0880
:100A700040028A110A12031D3F2D4F08BB0064007B
:100A80004F0841028A110A12031D482D4F08BC006D
:100A90000800FE308A013C2001308A013C200530EC
:100AA0008A013C2007308A013C200530A9003B30F8
:100AB000B000B101A50138308A0180203D0838021C
:100AC000031DFF30FF3AC2003E083902031DFF300C
:100AD000FF3AC4004208840044088A01CA20C400C6
:100AE000C5003F083A02031DFF30FF3AC600440824
:100AF0004504840046088A01CA20C600C700400891
:100B00003B02031DFF30FF3AC8004608470484003B
:100B100048088A01CA20C800C90041083C02031DD8
:100B2000FF30FF3ACA004808490484004A088A0195
:100B3000CA20CA00CB0064004A084B048A110A127A
:100B40000319102E64005008003C8A110A12031D7C
:100B5000D92DFE308A013C20C0308A013C2006306D
:100B60008A013C2020308A013C204B308A013C2005
:100B700061308A013C207A308A013C2061308A0150
:100B80003C206E308A013C2064308A013C20693070
:100B90008A013C206E308A013C2069308A013C2069
:100BA0007A308A013C2021308A013C208A110A12C5
:100BB0000D2EFE308A013C20C0308A013C200630D8
:100BC0008A013C20FF305007C200FF300318013E6D
:100BD000C30042088A013C204B308A013C2061302E
:100BE0008A013C207A308A013C2061308A013C2015
:100BF0006E308A013C2064308A013C2069308A01D1
:100C00003C206E308A013C2069308A013C207A30D9
:100C10008A013C2021308A013C208A110A128F2E41
:100C200064005008003C8A110A12031D262EFE3073
:100C30008A013C20C0308A013C2006308A013C20D9
:100C400020308A013C208A110A128F2E640050083D
:100C5000053C8A110A12031D7C2EFE308A013C20BD
:100C600001308A013C2005308A013C2007308A018E
:100C70003C200530A9003B30B000B101A5013D305A
:100C80008A018020FE308A013C20C0308A013C204D
:100C900006308A013C20FF305007C200FF300318A5
:100CA000013EC30042088A013C204B308A013C20AF
:100CB00061308A013C2079308A013C2062308A010F
:100CC0003C2065308A013C2074308A013C2074301D
:100CD0008A013C2069308A013C206E308A013C2028
:100CE00069308A013C207A308A013C2021308A0117
:100CF0003C208A110A128F2EFE308A013C20C0301F
:100D00008A013C2006308A013C20FF305007C20097
:100D1000FF300318013EC30042088A013C2008004E
:100D20000330CE00640001304E028A110A12031C07
:100D3000AD2EFE308A013C20CF308A013C204E0887
:100D40008A011B200330A300E8308A018F20013084
:100D5000CE028A110A120318922EFE308A013C201C
:0E0D60008F308A013C2020308A013C200800A0
:02400E00753FFC
:00000001FF
