:020000040000FA
:10000000B20138299818181218162C08A0002D08CB
:10001000A100A201A3010C280D2864008C1A292834
:10002000FF30A207031CA307031CA007031CA107A2
:10003000031C0800220F0B28230F0C283230A200CB
:100040000030A3000D2898181812181664008C1E92
:1000500026281A080314332964000C1E2C28990042
:1000600003143329A400B3172730A3001030442011
:100070000330A300E8304420A30164304420A301EE
:100080000A30442024084F28A2002508A100240893
:10009000A00012212008031DB313B31B0800303E3B
:1000A000A700091109108910831609110910891078
:1000B000880183122708B21878283A30A100FC3052
:1000C000DB203330A6008B201030A1006830DB200D
:1000D0008B206430DA208B20383077200C3077206A
:1000E0000130772006307720B214270878283214A0
:1000F000A600321C86280910033C031C8B288B2089
:100100000730A100D030DB20031408003214FE3C7D
:10011000031933290914091526088800321009111A
:100120003230DA2003140800A401A501B3122E21F5
:10013000031C0800D33E0319B3162D3EC63E031818
:1001400097280A3E031C9728A2000310240DA00044
:10015000250DA100200DA10DA4070318A10A210857
:10016000A507A40DA50D2208A4070318A50AA90335
:100170000319C3282E21031C0800C63E0318C328F8
:100180000A3E0318A428B31ECA28A409A509A40A74
:100190000319A50A240803143329A301A200FF3080
:1001A000A207031CA307031C33290330A100DF307F
:1001B000DB20CF28A101E83EA000A109FC30031CF0
:1001C000E428A0070318E128A0076400A10FE12894
:1001D0002018EA28A01CEE280000EE280800013EA6
:1001E000A7000A30A200A3011221A70BF4282408BB
:1001F0000800A101A301A2000130FE28A8002308E5
:100200002102031D052922082002043003180130B1
:10021000031902302805031DFF3033290404031D90
:10022000FF303329A501A4011030A600210DA40D33
:10023000A50D2208A4022308031C230FA5020318FE
:1002400028292208A40723080318230FA507031051
:10025000A00DA10DA60B1629200833298400310812
:100260008A0030088200831303138312640008009D
:10027000831619309900243098008312903098002A
:10028000831607309F00643083128A01CD205330DB
:100290008A012C2061308A012C2061308A012C20B7
:1002A00074308A012C2027308A012C2069308A0181
:1002B0002C2020308A012C2061308A012C207930BA
:1002C0008A012C2061308A012C2072308A012C2076
:1002D0006C308A012C2061308A012C206D308A011B
:1002E0002C2061308A012C206B308A012C20203098
:1002F0008A012C2069308A012C2063308A012C204D
:1003000069308A012C206E308A012C2020308A012D
:100310002C2027308A012C2073308A012C20703049
:100320008A012C2061308A012C2063308A012C2024
:1003300065308A012C2027308A012C2065308A0103
:100340002C2020308A012C2062308A012C20613040
:100350008A012C2073308A012C2061308A012C20E4
:1003600062308A012C2069308A012C206C308A018D
:100370002C2069308A012C2072308A012C207330A5
:100380008A012C2069308A012C206E308A012C20B1
:1003900069308A012C207A308A012C202E308A0183
:1003A0002C200D308A012C200A308A012C20FF30AD
:1003B000BF006400183040028A110A1203186B2A29
:1003C00064003C303E028A110A120318672A640056
:1003D0003C3041028A110A120318632AFE308A0156
:1003E000502001308A0150204008A000A1010130B6
:1003F0008A01EF20B800B9013908A50038088A0140
:1004000032204008A000A10100308A01EF20B8008E
:10041000B9013908A50038088A0132203A308A012A
:1004200050203E08A000A10101308A01EF20B80051
:10043000B9013908A50038088A0132203E08A00019
:10044000A10100308A01EF20B800B9013908A500E8
:1004500038088A0132203A308A0150204108A00031
:10046000A10101308A01EF20B800B9013908A500C7
:1004700038088A0132204108A000A10100308A0119
:10048000EF20B800B9013908A50038088A013220E8
:10049000AC01AD018A0102208A110A12031C512A03
:1004A000BF0064003F08203C8A110A12031D5B2A2A
:1004B0008A110A126E2A0330A300E8308A01CE2086
:1004C000C10A8A01E729C101BE0A8A01E029BE01E9
:1004D000C00A8A01D929C0018A01D929FE308A01BE
:1004E000502001308A01502053308A015020613061
:1004F0008A01502061308A01502074308A015020D6
:1005000020308A01502061308A01502079308A01E0
:10051000502061308A01502072308A0150206C30A6
:100520008A01502061308A0150206E308A015020AB
:1005300069308A01502079308A0150206F308A0159
:10054000502072308A01502059308A012C206530A9
:100550008A012C206E308A012C2069308A012C20DF
:1005600020308A012C2073308A012C2061308A01CE
:100570002C2061308A012C2074308A012C206930B3
:100580008A012C2020308A012C2067308A012C20FF
:1005900069308A012C2072308A012C2069308A014E
:1005A0002C206E308A012C2069308A012C207A3070
:1005B0008A012C203A308A012C2020308A012C20FC
:1005C0000230A9002330B000B1018A019420C0009C
:1005D0000D308A012C200A308A012C2059308A01E2
:1005E0002C2065308A012C206E308A012C20693045
:1005F0008A012C2020308A012C2064308A012C2092
:1006000061308A012C206B308A012C2069308A01EC
:100610002C206B308A012C2061308A012C2079300B
:100620008A012C2069308A012C2020308A012C205C
:1006300067308A012C2069308A012C2072308A01AF
:100640002C2069308A012C206E308A012C206930E0
:100650008A012C207A308A012C203A308A012C2001
:1006600020308A012C200230A9002330B000B101D3
:100670008A019420BE000D308A012C200A308A01A4
:100680002C2059308A012C2065308A012C206E30B4
:100690008A012C2069308A012C2020308A012C20EC
:1006A00073308A012C2061308A012C206E308A013F
:1006B0002C2069308A012C2079308A012C20653069
:1006C0008A012C2079308A012C2069308A012C2063
:1006D00020308A012C2067308A012C2069308A0161
:1006E0002C2072308A012C2069308A012C206E3037
:1006F0008A012C2069308A012C207A308A012C2032
:100700003A308A012C2020308A012C200230A900A6
:100710002330B000B1018A019420C1004008A0003C
:1007200017308A01F920B8003E08A0003B308A014A
:10073000F920BA00380884003A088A010E21BA006C
:10074000BB004108A0003B308A01F920BC003A08F8
:100750003B0484003C088A010E21BC00BD006400FB
:100760003C083D048A110A1203190B2CFE308A0141
:10077000502001308A01502048308A0150204130F9
:100780008A01502054308A01502041308A01502083
:1007900021308A0150200D308A012C200A308A0134
:1007A0002C2048308A012C2061308A012C207430A2
:1007B0008A012C2061308A012C206C308A012C2087
:1007C00069308A012C2020308A012C2067308A0170
:1007D0002C2069308A012C2072308A012C2069304B
:1007E0008A012C2073308A012C2021308A012C2090
:1007F0000D308A012C200A308A012C200D308A010C
:100800002C200A308A012C200B30A300B8308A013A
:10081000CE208A016E2A0D308A012C200A308A01EE
:100820002C2053308A012C2061308A012C20613029
:100830008A012C2074308A012C2020308A012C203F
:1008400061308A012C2079308A012C2061308A01A4
:100850002C2072308A012C206C308A012C206130CF
:100860008A012C206D308A012C2061308A012C20D5
:1008700020308A012C2062308A012C2061308A01CC
:100880002C2073308A012C2061308A012C20723098
:100890008A012C2069308A012C206C308A012C209E
:1008A00069308A012C202E308A012C200D308A01DB
:1008B0002C200A308A012C200D308A012C200A308D
:0808C0008A012C208A0147295E
:02400E00753FFC
:00000001FF
