:020000040000FA
:10000000B201BD28A400B3172730A300103014207C
:100010000330A300E8301420A30164301420A301AE
:100020000A30142024081F28A2002508A100240853
:10003000A00086202008031DB313B31B0800303E28
:10004000A7000911091089108316091109108910D8
:10005000880183122708B21848283A30A100FC30E2
:1000600072203330A6005B201030A100683072206F
:100070005B20643071205B20383047200C304720F3
:100080000130472006304720B21427084828321490
:10009000A600321C56280910033C031C5B285B2079
:1000A0000730A100D0307220031408003214FE3C47
:1000B0000319B828091409152608880032100911F7
:1000C0003230712003140800A301A200FF30A20700
:1000D000031CA307031CB8280330A100DF307220E3
:1000E0006628A101E83EA000A109FC30031C7B2882
:1000F000A00703187828A0076400A10F782820180B
:100100008128A01C8528000085280800A501A401DD
:100110001030A600210DA40DA50D2208A40223086D
:10012000031C230FA50203189C282208A4072308F8
:100130000318230FA5070310A00DA10DA60B8A28F5
:100140002008B8281030A800A101A001A70CA60C17
:10015000031CB0282208A00723080318230FA107B7
:10016000A10CA00CA50CA40CA80BA6282408B82848
:1001700083130313831264000800831607309F0063
:10018000643083128A016420FE308A01202001300D
:100190008A012020BA0164000B303A028A110A1247
:1001A00003180B29FE308A01202002308A0120200A
:1001B0003A08A600A7010230A200A3018A01A220EA
:1001C000B8002508B9003908A50038088A010220BE
:1001D000FE308A012020C0308A0120203A08A60083
:1001E000A7010230A200A3018A01A220B8002508BD
:1001F000B900B80A0319B90A3908A50038088A01F4
:1002000002200330A300E8308A016520BA0A8A116F
:0A0210000A12031DCB288A01C4283E
:02400E00753FFC
:00000001FF
