:020000040000FA
:100000002328A101E83EA000A109FC30031C0B2815
:10001000A00703180828A0076400A10F08282018CB
:100020001128A01C15280000152808000310A00D99
:10003000A10DFF3E0318162820081E288313031362
:1000400083126400080083168601870183128601EB
:100050008701B8011030B9002430BA002030BB004D
:100060002030BC002430BD001030BE00BF01013084
:10007000C200C3016400083043028A110A12031847
:100080005228420986004308383E84000008870051
:1000900019308A0101200310C20DC30A8A110A1205
:0800A000031D3A288A013728EC
:02400E00753FFC
:00000001FF
